{
  "_format": "hh-sol-artifact-1",
  "contractName": "PDyce",
  "sourceName": "contracts/PDyce.sol",
  "abi": [
    {
      "inputs": [
        {
          "internalType": "address",
          "name": "_inToken",
          "type": "address"
        },
        {
          "internalType": "uint256",
          "name": "_keyHash",
          "type": "uint256"
        }
      ],
      "stateMutability": "nonpayable",
      "type": "constructor"
    },
    {
      "anonymous": false,
      "inputs": [
        {
          "indexed": true,
          "internalType": "uint256",
          "name": "amount",
          "type": "uint256"
        }
      ],
      "name": "ContractFunded",
      "type": "event"
    },
    {
      "anonymous": false,
      "inputs": [
        {
          "indexed": true,
          "internalType": "uint256",
          "name": "amount",
          "type": "uint256"
        }
      ],
      "name": "ContractWithdrew",
      "type": "event"
    },
    {
      "anonymous": false,
      "inputs": [
        {
          "indexed": true,
          "internalType": "uint256",
          "name": "requestId",
          "type": "uint256"
        },
        {
          "indexed": true,
          "internalType": "uint256",
          "name": "result",
          "type": "uint256"
        }
      ],
      "name": "GameLost",
      "type": "event"
    },
    {
      "anonymous": false,
      "inputs": [
        {
          "indexed": true,
          "internalType": "uint256",
          "name": "requestId",
          "type": "uint256"
        },
        {
          "indexed": false,
          "internalType": "uint256",
          "name": "betSize",
          "type": "uint256"
        }
      ],
      "name": "GameStarted",
      "type": "event"
    },
    {
      "anonymous": false,
      "inputs": [
        {
          "indexed": true,
          "internalType": "uint256",
          "name": "requestId",
          "type": "uint256"
        },
        {
          "indexed": true,
          "internalType": "uint256",
          "name": "result",
          "type": "uint256"
        }
      ],
      "name": "GameWon",
      "type": "event"
    },
    {
      "anonymous": false,
      "inputs": [
        {
          "indexed": true,
          "internalType": "address",
          "name": "previousOwner",
          "type": "address"
        },
        {
          "indexed": true,
          "internalType": "address",
          "name": "newOwner",
          "type": "address"
        }
      ],
      "name": "OwnershipTransferred",
      "type": "event"
    },
    {
      "anonymous": false,
      "inputs": [
        {
          "indexed": true,
          "internalType": "address",
          "name": "user",
          "type": "address"
        },
        {
          "indexed": true,
          "internalType": "uint256",
          "name": "amount",
          "type": "uint256"
        }
      ],
      "name": "WinningsWithdrew",
      "type": "event"
    },
    {
      "inputs": [
        {
          "internalType": "address",
          "name": "_treasury",
          "type": "address"
        }
      ],
      "name": "consolidate",
      "outputs": [
        {
          "internalType": "bool",
          "name": "",
          "type": "bool"
        }
      ],
      "stateMutability": "nonpayable",
      "type": "function"
    },
    {
      "inputs": [
        {
          "internalType": "address",
          "name": "",
          "type": "address"
        }
      ],
      "name": "currentRequest",
      "outputs": [
        {
          "internalType": "uint256",
          "name": "",
          "type": "uint256"
        }
      ],
      "stateMutability": "view",
      "type": "function"
    },
    {
      "inputs": [
        {
          "internalType": "uint256",
          "name": "amount",
          "type": "uint256"
        }
      ],
      "name": "deposit",
      "outputs": [
        {
          "internalType": "bool",
          "name": "",
          "type": "bool"
        }
      ],
      "stateMutability": "nonpayable",
      "type": "function"
    },
    {
      "inputs": [
        {
          "internalType": "uint256",
          "name": "",
          "type": "uint256"
        }
      ],
      "name": "gamestatus",
      "outputs": [
        {
          "internalType": "uint256",
          "name": "",
          "type": "uint256"
        }
      ],
      "stateMutability": "view",
      "type": "function"
    },
    {
      "inputs": [],
      "name": "getBalance",
      "outputs": [
        {
          "internalType": "uint256",
          "name": "",
          "type": "uint256"
        }
      ],
      "stateMutability": "view",
      "type": "function"
    },
    {
      "inputs": [],
      "name": "inToken",
      "outputs": [
        {
          "internalType": "contract ERC20",
          "name": "",
          "type": "address"
        }
      ],
      "stateMutability": "view",
      "type": "function"
    },
    {
      "inputs": [],
      "name": "owner",
      "outputs": [
        {
          "internalType": "address",
          "name": "",
          "type": "address"
        }
      ],
      "stateMutability": "view",
      "type": "function"
    },
    {
      "inputs": [],
      "name": "renounceOwnership",
      "outputs": [],
      "stateMutability": "nonpayable",
      "type": "function"
    },
    {
      "inputs": [],
      "name": "requestId",
      "outputs": [
        {
          "internalType": "uint256",
          "name": "",
          "type": "uint256"
        }
      ],
      "stateMutability": "view",
      "type": "function"
    },
    {
      "inputs": [
        {
          "internalType": "uint256",
          "name": "dicenum",
          "type": "uint256"
        },
        {
          "internalType": "uint256",
          "name": "requestId",
          "type": "uint256"
        }
      ],
      "name": "rollDyce",
      "outputs": [
        {
          "internalType": "bool",
          "name": "",
          "type": "bool"
        }
      ],
      "stateMutability": "nonpayable",
      "type": "function"
    },
    {
      "inputs": [
        {
          "internalType": "address",
          "name": "newOwner",
          "type": "address"
        }
      ],
      "name": "transferOwnership",
      "outputs": [],
      "stateMutability": "nonpayable",
      "type": "function"
    },
    {
      "inputs": [
        {
          "internalType": "address",
          "name": "",
          "type": "address"
        }
      ],
      "name": "winnings",
      "outputs": [
        {
          "internalType": "uint256",
          "name": "",
          "type": "uint256"
        }
      ],
      "stateMutability": "view",
      "type": "function"
    },
    {
      "inputs": [],
      "name": "withdrawWinnings",
      "outputs": [
        {
          "internalType": "bool",
          "name": "",
          "type": "bool"
        }
      ],
      "stateMutability": "nonpayable",
      "type": "function"
    }
  ],
  "bytecode": "0x608060405234801561001057600080fd5b50604051610f95380380610f9583398101604081905261002f916100b1565b61003833610061565b600880546001600160a01b0319166001600160a01b0393909316929092179091556007556100eb565b600080546001600160a01b038381166001600160a01b0319831681178455604051919092169283917f8be0079c531659141344cd1fd0a4f28419497f9722a3daafe3b4186f6b6457e09190a35050565b600080604083850312156100c457600080fd5b82516001600160a01b03811681146100db57600080fd5b6020939093015192949293505050565b610e9b806100fa6000396000f3fe608060405234801561001057600080fd5b50600436106100ce5760003560e01c80638da5cb5b1161008c578063b6b55f2511610066578063b6b55f25146101b1578063cc42e83a146101c4578063ea3a1499146101cc578063f2fde38b146101ec57600080fd5b80638da5cb5b1461016d578063971c6fc81461017e578063af6128be1461019157600080fd5b80626d6cae146100d357806312065fe0146100ef5780631b4ec207146100f557806345d39d0c146101185780636c82532714610138578063715018a614610163575b600080fd5b6100dc60095481565b6040519081526020015b60405180910390f35b476100dc565b610108610103366004610ce8565b6101ff565b60405190151581526020016100e6565b6100dc610126366004610ce8565b600c6020526000908152604090205481565b60085461014b906001600160a01b031681565b6040516001600160a01b0390911681526020016100e6565b61016b610390565b005b6000546001600160a01b031661014b565b61010861018c366004610d18565b6103c6565b6100dc61019f366004610d3a565b600b6020526000908152604090205481565b6101086101bf366004610d3a565b6106a6565b6101086108a8565b6100dc6101da366004610ce8565b60056020526000908152604090205481565b61016b6101fa366004610ce8565b6109ce565b600080546001600160a01b031633146102335760405162461bcd60e51b815260040161022a90610d53565b60405180910390fd5b6008546040516370a0823160e01b81523060048201526000916001600160a01b0316906370a0823190602401602060405180830381865afa15801561027c573d6000803e3d6000fd5b505050506040513d601f19601f820116820180604052508101906102a09190610d88565b60085460405163a9059cbb60e01b81526001600160a01b0386811660048301526024820184905292935091169063a9059cbb906044016020604051808303816000875af11580156102f5573d6000803e3d6000fd5b505050506040513d601f19601f820116820180604052508101906103199190610da1565b61035c5760405162461bcd60e51b815260206004820152601460248201527302330b4b632b2103a37903a3930b739b332b910160651b604482015260640161022a565b60405181907f7c1606aefc9f9d63c9112c79f4f6339235151c3591ca431c624d9277d0401e3190600090a250600192915050565b6000546001600160a01b031633146103ba5760405162461bcd60e51b815260040161022a90610d53565b6103c46000610a69565b565b6000818152600a602052604081205460ff16156104255760405162461bcd60e51b815260206004820152601d60248201527f47616d65204f76657220666f7220746869732052657175657374204964000000604482015260640161022a565b82600114806104345750826002145b8061043f5750826003145b8061044a5750826004145b806104555750826005145b806104605750826006145b61049d5760405162461bcd60e51b815260206004820152600e60248201526d24b73b30b634b210273ab6b132b960911b604482015260640161022a565b6000828152600160209081526040808320815160608101835281546001600160a01b0316815260029091015491810191909152908101859052906104e084610ab9565b905060008260200151821415610597575060408083015183516001600160a01b031660009081526005602052918220805491928392610520908490610dd9565b909155505060405160019086907f7e831142bdef02e9e9c8e441063aa00b11c59cccf560aaa222b4882ac553da2990600090a382516001600160a01b0316600090815260026020526040902054610578906001610dd9565b83516001600160a01b03166000908152600260205260409020556105c6565b60405160019086907f4dc0154fa1d39b7c0a85a7087d1060602096df87f496d97236da9384504808a490600090a35b6105f360405180606001604052806000815260200160006001600160a01b03168152602001600081525090565b3360208281018281528884526040808501868152600094855260048452818520865181559251600180850180546001600160a01b0319166001600160a01b03938416179055915160029094019390935588519092168452600390925291205461065b91610dd9565b84516001600160a01b0316600090815260036020908152604080832093909355978152600a8852818120805460ff19166001179055600b885220839055505092015190911492915050565b6000600482116106ec5760405162461bcd60e51b8152602060048201526011602482015270155b99195c881b5a5b9a5b5d5b4818995d607a1b604482015260640161022a565b60fb821061072f5760405162461bcd60e51b815260206004820152601060248201526f13dd995c881b585e1a5b5d5b4818995d60821b604482015260640161022a565b6008546001600160a01b03166323b872dd333061075486670de0b6b3a7640000610df1565b6040516001600160e01b031960e086901b1681526001600160a01b03938416600482015292909116602483015260448201526064016020604051808303816000875af11580156107a8573d6000803e3d6000fd5b505050506040513d601f19601f820116820180604052508101906107cc9190610da1565b50336000908152600c60205260409020546107e8906001610dd9565b600981815560408051606081018252600060208083018281523384528385018981529683526001808352858420855181546001600160a01b039091166001600160a01b0319909116178155915190820155955160029096019590955583548152600a8552829020805460ff1916905591549051858152919290917fa2dfaa3573b86004ec9d4d4abe5068d942579c59da4da8cd0d9e45e71a393bc1910160405180910390a25050600954336000908152600c602052604090205550600190565b336000908152600560205260408120546108fb5760405162461bcd60e51b81526020600482015260146024820152734e6f2077696e6e696e677320746f20636c61696d60601b604482015260640161022a565b33600090815260056020526040812080549190556008546001600160a01b031663a9059cbb6109273390565b6040516001600160e01b031960e084901b1681526001600160a01b039091166004820152602481018490526044016020604051808303816000875af1158015610974573d6000803e3d6000fd5b505050506040513d601f19601f820116820180604052508101906109989190610da1565b50604051819033907fd661670b7f3dbb278d8134a3c845c5113e6f4497f82078274e43cd7bd71560e990600090a3600191505090565b6000546001600160a01b031633146109f85760405162461bcd60e51b815260040161022a90610d53565b6001600160a01b038116610a5d5760405162461bcd60e51b815260206004820152602660248201527f4f776e61626c653a206e6577206f776e657220697320746865207a65726f206160448201526564647265737360d01b606482015260840161022a565b610a6681610a69565b50565b600080546001600160a01b038381166001600160a01b0319831681178455604051919092169283917f8be0079c531659141344cd1fd0a4f28419497f9722a3daafe3b4186f6b6457e09190a35050565b600080610ac4610bd3565b90506000610ad3600683610e26565b610ade906001610dd9565b600085815260016020818152604080842081516060808201845282546001600160a01b039081168084528488015484880152600294850154848701528852838652848820548351821689526003875285892054845183168a5260048852988690208651938401875280548452978801549091169582019590955294909101549184019190915293945091908115610bc757600082610b7d856064610df1565b610b879190610e3a565b9050801580610b97575060075481115b80610ba6575060008260400151115b15610bc5576006610bb8886001610dd9565b610bc29190610e26565b95505b505b50929695505050505050565b6040516bffffffffffffffffffffffff193360601b1660208201526000908190439042906034016040516020818303038152906040528051906020012060001c610c1d9190610e3a565b6040516bffffffffffffffffffffffff194160601b166020820152459042906034016040516020818303038152906040528051906020012060001c610c629190610e3a565b610c6c4442610dd9565b610c769190610dd9565b610c809190610dd9565b610c8a9190610dd9565b610c949190610dd9565b604051602001610ca691815260200190565b60408051601f1981840301815291905280516020909101209050610ccc6103e882610e3a565b610cd8906103e8610df1565b610ce29082610e4e565b91505090565b600060208284031215610cfa57600080fd5b81356001600160a01b0381168114610d1157600080fd5b9392505050565b60008060408385031215610d2b57600080fd5b50508035926020909101359150565b600060208284031215610d4c57600080fd5b5035919050565b6020808252818101527f4f776e61626c653a2063616c6c6572206973206e6f7420746865206f776e6572604082015260600190565b600060208284031215610d9a57600080fd5b5051919050565b600060208284031215610db357600080fd5b81518015158114610d1157600080fd5b634e487b7160e01b600052601160045260246000fd5b60008219821115610dec57610dec610dc3565b500190565b6000816000190483118215151615610e0b57610e0b610dc3565b500290565b634e487b7160e01b600052601260045260246000fd5b600082610e3557610e35610e10565b500690565b600082610e4957610e49610e10565b500490565b600082821015610e6057610e60610dc3565b50039056fea2646970667358221220ad22a3c1d135a08f38bdd3a4c2ed71f2e158257a2748326b7c6b2eabf47c3dff64736f6c634300080b0033",
  "linkReferences": {},
  "deployedLinkReferences": {}
}